{
  "_format": "hh-sol-artifact-1",
  "contractName": "SamToken",
  "sourceName": "contracts/SamToken.sol",
  "abi": [
    {
      "inputs": [],
      "stateMutability": "nonpayable",
      "type": "constructor"
    },
    {
      "anonymous": false,
      "inputs": [
        {
          "indexed": true,
          "internalType": "address",
          "name": "owner",
          "type": "address"
        },
        {
          "indexed": true,
          "internalType": "address",
          "name": "approved",
          "type": "address"
        },
        {
          "indexed": true,
          "internalType": "uint256",
          "name": "tokenId",
          "type": "uint256"
        }
      ],
      "name": "Approval",
      "type": "event"
    },
    {
      "anonymous": false,
      "inputs": [
        {
          "indexed": true,
          "internalType": "address",
          "name": "owner",
          "type": "address"
        },
        {
          "indexed": true,
          "internalType": "address",
          "name": "operator",
          "type": "address"
        },
        {
          "indexed": false,
          "internalType": "bool",
          "name": "approved",
          "type": "bool"
        }
      ],
      "name": "ApprovalForAll",
      "type": "event"
    },
    {
      "anonymous": false,
      "inputs": [
        {
          "indexed": true,
          "internalType": "address",
          "name": "previousOwner",
          "type": "address"
        },
        {
          "indexed": true,
          "internalType": "address",
          "name": "newOwner",
          "type": "address"
        }
      ],
      "name": "OwnershipTransferred",
      "type": "event"
    },
    {
      "anonymous": false,
      "inputs": [
        {
          "indexed": false,
          "internalType": "address",
          "name": "account",
          "type": "address"
        }
      ],
      "name": "Paused",
      "type": "event"
    },
    {
      "anonymous": false,
      "inputs": [
        {
          "indexed": true,
          "internalType": "address",
          "name": "from",
          "type": "address"
        },
        {
          "indexed": true,
          "internalType": "address",
          "name": "to",
          "type": "address"
        },
        {
          "indexed": true,
          "internalType": "uint256",
          "name": "tokenId",
          "type": "uint256"
        }
      ],
      "name": "Transfer",
      "type": "event"
    },
    {
      "anonymous": false,
      "inputs": [
        {
          "indexed": false,
          "internalType": "address",
          "name": "account",
          "type": "address"
        }
      ],
      "name": "Unpaused",
      "type": "event"
    },
    {
      "inputs": [
        {
          "internalType": "address",
          "name": "to",
          "type": "address"
        },
        {
          "internalType": "uint256",
          "name": "tokenId",
          "type": "uint256"
        }
      ],
      "name": "approve",
      "outputs": [],
      "stateMutability": "nonpayable",
      "type": "function"
    },
    {
      "inputs": [
        {
          "internalType": "address",
          "name": "owner",
          "type": "address"
        }
      ],
      "name": "balanceOf",
      "outputs": [
        {
          "internalType": "uint256",
          "name": "",
          "type": "uint256"
        }
      ],
      "stateMutability": "view",
      "type": "function"
    },
    {
      "inputs": [
        {
          "internalType": "uint256",
          "name": "tokenId",
          "type": "uint256"
        }
      ],
      "name": "burn",
      "outputs": [],
      "stateMutability": "nonpayable",
      "type": "function"
    },
    {
      "inputs": [
        {
          "internalType": "uint256",
          "name": "tokenId",
          "type": "uint256"
        }
      ],
      "name": "getApproved",
      "outputs": [
        {
          "internalType": "address",
          "name": "",
          "type": "address"
        }
      ],
      "stateMutability": "view",
      "type": "function"
    },
    {
      "inputs": [
        {
          "internalType": "address",
          "name": "owner",
          "type": "address"
        },
        {
          "internalType": "address",
          "name": "operator",
          "type": "address"
        }
      ],
      "name": "isApprovedForAll",
      "outputs": [
        {
          "internalType": "bool",
          "name": "",
          "type": "bool"
        }
      ],
      "stateMutability": "view",
      "type": "function"
    },
    {
      "inputs": [],
      "name": "name",
      "outputs": [
        {
          "internalType": "string",
          "name": "",
          "type": "string"
        }
      ],
      "stateMutability": "view",
      "type": "function"
    },
    {
      "inputs": [],
      "name": "owner",
      "outputs": [
        {
          "internalType": "address",
          "name": "",
          "type": "address"
        }
      ],
      "stateMutability": "view",
      "type": "function"
    },
    {
      "inputs": [
        {
          "internalType": "uint256",
          "name": "tokenId",
          "type": "uint256"
        }
      ],
      "name": "ownerOf",
      "outputs": [
        {
          "internalType": "address",
          "name": "",
          "type": "address"
        }
      ],
      "stateMutability": "view",
      "type": "function"
    },
    {
      "inputs": [],
      "name": "pause",
      "outputs": [],
      "stateMutability": "nonpayable",
      "type": "function"
    },
    {
      "inputs": [],
      "name": "paused",
      "outputs": [
        {
          "internalType": "bool",
          "name": "",
          "type": "bool"
        }
      ],
      "stateMutability": "view",
      "type": "function"
    },
    {
      "inputs": [],
      "name": "renounceOwnership",
      "outputs": [],
      "stateMutability": "nonpayable",
      "type": "function"
    },
    {
      "inputs": [
        {
          "internalType": "address",
          "name": "to",
          "type": "address"
        }
      ],
      "name": "safeMint",
      "outputs": [],
      "stateMutability": "nonpayable",
      "type": "function"
    },
    {
      "inputs": [
        {
          "internalType": "address",
          "name": "from",
          "type": "address"
        },
        {
          "internalType": "address",
          "name": "to",
          "type": "address"
        },
        {
          "internalType": "uint256",
          "name": "tokenId",
          "type": "uint256"
        }
      ],
      "name": "safeTransferFrom",
      "outputs": [],
      "stateMutability": "nonpayable",
      "type": "function"
    },
    {
      "inputs": [
        {
          "internalType": "address",
          "name": "from",
          "type": "address"
        },
        {
          "internalType": "address",
          "name": "to",
          "type": "address"
        },
        {
          "internalType": "uint256",
          "name": "tokenId",
          "type": "uint256"
        },
        {
          "internalType": "bytes",
          "name": "data",
          "type": "bytes"
        }
      ],
      "name": "safeTransferFrom",
      "outputs": [],
      "stateMutability": "nonpayable",
      "type": "function"
    },
    {
      "inputs": [
        {
          "internalType": "address",
          "name": "operator",
          "type": "address"
        },
        {
          "internalType": "bool",
          "name": "approved",
          "type": "bool"
        }
      ],
      "name": "setApprovalForAll",
      "outputs": [],
      "stateMutability": "nonpayable",
      "type": "function"
    },
    {
      "inputs": [
        {
          "internalType": "bytes4",
          "name": "interfaceId",
          "type": "bytes4"
        }
      ],
      "name": "supportsInterface",
      "outputs": [
        {
          "internalType": "bool",
          "name": "",
          "type": "bool"
        }
      ],
      "stateMutability": "view",
      "type": "function"
    },
    {
      "inputs": [],
      "name": "symbol",
      "outputs": [
        {
          "internalType": "string",
          "name": "",
          "type": "string"
        }
      ],
      "stateMutability": "view",
      "type": "function"
    },
    {
      "inputs": [
        {
          "internalType": "uint256",
          "name": "tokenId",
          "type": "uint256"
        }
      ],
      "name": "tokenURI",
      "outputs": [
        {
          "internalType": "string",
          "name": "",
          "type": "string"
        }
      ],
      "stateMutability": "view",
      "type": "function"
    },
    {
      "inputs": [
        {
          "internalType": "address",
          "name": "from",
          "type": "address"
        },
        {
          "internalType": "address",
          "name": "to",
          "type": "address"
        },
        {
          "internalType": "uint256",
          "name": "tokenId",
          "type": "uint256"
        }
      ],
      "name": "transferFrom",
      "outputs": [],
      "stateMutability": "nonpayable",
      "type": "function"
    },
    {
      "inputs": [
        {
          "internalType": "address",
          "name": "newOwner",
          "type": "address"
        }
      ],
      "name": "transferOwnership",
      "outputs": [],
      "stateMutability": "nonpayable",
      "type": "function"
    },
    {
      "inputs": [],
      "name": "unpause",
      "outputs": [],
      "stateMutability": "nonpayable",
      "type": "function"
    }
  ],
  "bytecode": "0x60806040523480156200001157600080fd5b506040518060400160405280600881526020017f53616d546f6b656e0000000000000000000000000000000000000000000000008152506040518060400160405280600381526020017f53544b0000000000000000000000000000000000000000000000000000000000815250816000908051906020019062000096929190620001c1565b508060019080519060200190620000af929190620001c1565b5050506000600660006101000a81548160ff021916908315150217905550620000ed620000e1620000f360201b60201c565b620000fb60201b60201c565b620002d6565b600033905090565b6000600660019054906101000a900473ffffffffffffffffffffffffffffffffffffffff16905081600660016101000a81548173ffffffffffffffffffffffffffffffffffffffff021916908373ffffffffffffffffffffffffffffffffffffffff1602179055508173ffffffffffffffffffffffffffffffffffffffff168173ffffffffffffffffffffffffffffffffffffffff167f8be0079c531659141344cd1fd0a4f28419497f9722a3daafe3b4186f6b6457e060405160405180910390a35050565b828054620001cf9062000271565b90600052602060002090601f016020900481019282620001f357600085556200023f565b82601f106200020e57805160ff19168380011785556200023f565b828001600101855582156200023f579182015b828111156200023e57825182559160200191906001019062000221565b5b5090506200024e919062000252565b5090565b5b808211156200026d57600081600090555060010162000253565b5090565b600060028204905060018216806200028a57607f821691505b60208210811415620002a157620002a0620002a7565b5b50919050565b7f4e487b7100000000000000000000000000000000000000000000000000000000600052602260045260246000fd5b612d0380620002e66000396000f3fe608060405234801561001057600080fd5b50600436106101375760003560e01c80636352211e116100b857806395d89b411161007c57806395d89b4114610300578063a22cb4651461031e578063b88d4fde1461033a578063c87b56dd14610356578063e985e9c514610386578063f2fde38b146103b657610137565b80636352211e1461026e57806370a082311461029e578063715018a6146102ce5780638456cb59146102d85780638da5cb5b146102e257610137565b80633f4ba83a116100ff5780633f4ba83a146101f257806340d097c3146101fc57806342842e0e1461021857806342966c68146102345780635c975abb1461025057610137565b806301ffc9a71461013c57806306fdde031461016c578063081812fc1461018a578063095ea7b3146101ba57806323b872dd146101d6575b600080fd5b61015660048036038101906101519190611f0b565b6103d2565b60405161016391906122ee565b60405180910390f35b6101746104b4565b6040516101819190612309565b60405180910390f35b6101a4600480360381019061019f9190611f5d565b610546565b6040516101b19190612287565b60405180910390f35b6101d460048036038101906101cf9190611ecf565b61058c565b005b6101f060048036038101906101eb9190611dc9565b6106a4565b005b6101fa610704565b005b61021660048036038101906102119190611d64565b610716565b005b610232600480360381019061022d9190611dc9565b610744565b005b61024e60048036038101906102499190611f5d565b610764565b005b6102586107c0565b60405161026591906122ee565b60405180910390f35b61028860048036038101906102839190611f5d565b6107d7565b6040516102959190612287565b60405180910390f35b6102b860048036038101906102b39190611d64565b610889565b6040516102c5919061250b565b60405180910390f35b6102d6610941565b005b6102e0610955565b005b6102ea610967565b6040516102f79190612287565b60405180910390f35b610308610991565b6040516103159190612309565b60405180910390f35b61033860048036038101906103339190611e93565b610a23565b005b610354600480360381019061034f9190611e18565b610a39565b005b610370600480360381019061036b9190611f5d565b610a9b565b60405161037d9190612309565b60405180910390f35b6103a0600480360381019061039b9190611d8d565b610b03565b6040516103ad91906122ee565b60405180910390f35b6103d060048036038101906103cb9190611d64565b610b97565b005b60007f80ac58cd000000000000000000000000000000000000000000000000000000007bffffffffffffffffffffffffffffffffffffffffffffffffffffffff1916827bffffffffffffffffffffffffffffffffffffffffffffffffffffffff1916148061049d57507f5b5e139f000000000000000000000000000000000000000000000000000000007bffffffffffffffffffffffffffffffffffffffffffffffffffffffff1916827bffffffffffffffffffffffffffffffffffffffffffffffffffffffff1916145b806104ad57506104ac82610c1b565b5b9050919050565b6060600080546104c390612730565b80601f01602080910402602001604051908101604052809291908181526020018280546104ef90612730565b801561053c5780601f106105115761010080835404028352916020019161053c565b820191906000526020600020905b81548152906001019060200180831161051f57829003601f168201915b5050505050905090565b600061055182610c85565b6004600083815260200190815260200160002060009054906101000a900473ffffffffffffffffffffffffffffffffffffffff169050919050565b6000610597826107d7565b90508073ffffffffffffffffffffffffffffffffffffffff168373ffffffffffffffffffffffffffffffffffffffff161415610608576040517f08c379a00000000000000000000000000000000000000000000000000000000081526004016105ff906124cb565b60405180910390fd5b8073ffffffffffffffffffffffffffffffffffffffff16610627610cd0565b73ffffffffffffffffffffffffffffffffffffffff161480610656575061065581610650610cd0565b610b03565b5b610695576040517f08c379a000000000000000000000000000000000000000000000000000000000815260040161068c9061244b565b60405180910390fd5b61069f8383610cd8565b505050565b6106b56106af610cd0565b82610d91565b6106f4576040517f08c379a00000000000000000000000000000000000000000000000000000000081526004016106eb906124eb565b60405180910390fd5b6106ff838383610e26565b505050565b61070c61108d565b61071461110b565b565b61071e61116e565b600061072a60076111b8565b905061073660076111c6565b61074082826111dc565b5050565b61075f83838360405180602001604052806000815250610a39565b505050565b61077561076f610cd0565b82610d91565b6107b4576040517f08c379a00000000000000000000000000000000000000000000000000000000081526004016107ab906124eb565b60405180910390fd5b6107bd816111fa565b50565b6000600660009054906101000a900460ff16905090565b6000806002600084815260200190815260200160002060009054906101000a900473ffffffffffffffffffffffffffffffffffffffff169050600073ffffffffffffffffffffffffffffffffffffffff168173ffffffffffffffffffffffffffffffffffffffff161415610880576040517f08c379a0000000000000000000000000000000000000000000000000000000008152600401610877906124ab565b60405180910390fd5b80915050919050565b60008073ffffffffffffffffffffffffffffffffffffffff168273ffffffffffffffffffffffffffffffffffffffff1614156108fa576040517f08c379a00000000000000000000000000000000000000000000000000000000081526004016108f19061242b565b60405180910390fd5b600360008373ffffffffffffffffffffffffffffffffffffffff1673ffffffffffffffffffffffffffffffffffffffff168152602001908152602001600020549050919050565b61094961108d565b6109536000611317565b565b61095d61108d565b6109656113dd565b565b6000600660019054906101000a900473ffffffffffffffffffffffffffffffffffffffff16905090565b6060600180546109a090612730565b80601f01602080910402602001604051908101604052809291908181526020018280546109cc90612730565b8015610a195780601f106109ee57610100808354040283529160200191610a19565b820191906000526020600020905b8154815290600101906020018083116109fc57829003601f168201915b5050505050905090565b610a35610a2e610cd0565b8383611440565b5050565b610a4a610a44610cd0565b83610d91565b610a89576040517f08c379a0000000000000000000000000000000000000000000000000000000008152600401610a80906124eb565b60405180910390fd5b610a95848484846115ad565b50505050565b6060610aa682610c85565b6000610ab0611609565b90506000815111610ad05760405180602001604052806000815250610afb565b80610ada84611620565b604051602001610aeb929190612263565b6040516020818303038152906040525b915050919050565b6000600560008473ffffffffffffffffffffffffffffffffffffffff1673ffffffffffffffffffffffffffffffffffffffff16815260200190815260200160002060008373ffffffffffffffffffffffffffffffffffffffff1673ffffffffffffffffffffffffffffffffffffffff16815260200190815260200160002060009054906101000a900460ff16905092915050565b610b9f61108d565b600073ffffffffffffffffffffffffffffffffffffffff168173ffffffffffffffffffffffffffffffffffffffff161415610c0f576040517f08c379a0000000000000000000000000000000000000000000000000000000008152600401610c069061236b565b60405180910390fd5b610c1881611317565b50565b60007f01ffc9a7000000000000000000000000000000000000000000000000000000007bffffffffffffffffffffffffffffffffffffffffffffffffffffffff1916827bffffffffffffffffffffffffffffffffffffffffffffffffffffffff1916149050919050565b610c8e816117cd565b610ccd576040517f08c379a0000000000000000000000000000000000000000000000000000000008152600401610cc4906124ab565b60405180910390fd5b50565b600033905090565b816004600083815260200190815260200160002060006101000a81548173ffffffffffffffffffffffffffffffffffffffff021916908373ffffffffffffffffffffffffffffffffffffffff160217905550808273ffffffffffffffffffffffffffffffffffffffff16610d4b836107d7565b73ffffffffffffffffffffffffffffffffffffffff167f8c5be1e5ebec7d5bd14f71427d1e84f3dd0314c0f7b2291e5b200ac8c7c3b92560405160405180910390a45050565b600080610d9d836107d7565b90508073ffffffffffffffffffffffffffffffffffffffff168473ffffffffffffffffffffffffffffffffffffffff161480610ddf5750610dde8185610b03565b5b80610e1d57508373ffffffffffffffffffffffffffffffffffffffff16610e0584610546565b73ffffffffffffffffffffffffffffffffffffffff16145b91505092915050565b8273ffffffffffffffffffffffffffffffffffffffff16610e46826107d7565b73ffffffffffffffffffffffffffffffffffffffff1614610e9c576040517f08c379a0000000000000000000000000000000000000000000000000000000008152600401610e939061238b565b60405180910390fd5b600073ffffffffffffffffffffffffffffffffffffffff168273ffffffffffffffffffffffffffffffffffffffff161415610f0c576040517f08c379a0000000000000000000000000000000000000000000000000000000008152600401610f03906123cb565b60405180910390fd5b610f17838383611839565b610f22600082610cd8565b6001600360008573ffffffffffffffffffffffffffffffffffffffff1673ffffffffffffffffffffffffffffffffffffffff1681526020019081526020016000206000828254610f729190612646565b925050819055506001600360008473ffffffffffffffffffffffffffffffffffffffff1673ffffffffffffffffffffffffffffffffffffffff1681526020019081526020016000206000828254610fc991906125bf565b92505081905550816002600083815260200190815260200160002060006101000a81548173ffffffffffffffffffffffffffffffffffffffff021916908373ffffffffffffffffffffffffffffffffffffffff160217905550808273ffffffffffffffffffffffffffffffffffffffff168473ffffffffffffffffffffffffffffffffffffffff167fddf252ad1be2c89b69c2b068fc378daa952ba7f163c4a11628f55a4df523b3ef60405160405180910390a4611088838383611851565b505050565b611095610cd0565b73ffffffffffffffffffffffffffffffffffffffff166110b3610967565b73ffffffffffffffffffffffffffffffffffffffff1614611109576040517f08c379a00000000000000000000000000000000000000000000000000000000081526004016111009061248b565b60405180910390fd5b565b611113611856565b6000600660006101000a81548160ff0219169083151502179055507f5db9ee0a495bf2e6ff9c91a7834c1ba4fdd244a5e8aa4e537bd38aeae4b073aa611157610cd0565b6040516111649190612287565b60405180910390a1565b6111766107c0565b156111b6576040517f08c379a00000000000000000000000000000000000000000000000000000000081526004016111ad9061240b565b60405180910390fd5b565b600081600001549050919050565b6001816000016000828254019250508190555050565b6111f682826040518060200160405280600081525061189f565b5050565b6000611205826107d7565b905061121381600084611839565b61121e600083610cd8565b6001600360008373ffffffffffffffffffffffffffffffffffffffff1673ffffffffffffffffffffffffffffffffffffffff168152602001908152602001600020600082825461126e9190612646565b925050819055506002600083815260200190815260200160002060006101000a81549073ffffffffffffffffffffffffffffffffffffffff021916905581600073ffffffffffffffffffffffffffffffffffffffff168273ffffffffffffffffffffffffffffffffffffffff167fddf252ad1be2c89b69c2b068fc378daa952ba7f163c4a11628f55a4df523b3ef60405160405180910390a461131381600084611851565b5050565b6000600660019054906101000a900473ffffffffffffffffffffffffffffffffffffffff16905081600660016101000a81548173ffffffffffffffffffffffffffffffffffffffff021916908373ffffffffffffffffffffffffffffffffffffffff1602179055508173ffffffffffffffffffffffffffffffffffffffff168173ffffffffffffffffffffffffffffffffffffffff167f8be0079c531659141344cd1fd0a4f28419497f9722a3daafe3b4186f6b6457e060405160405180910390a35050565b6113e561116e565b6001600660006101000a81548160ff0219169083151502179055507f62e78cea01bee320cd4e420270b5ea74000d11b0c9f74754ebdbfc544b05a258611429610cd0565b6040516114369190612287565b60405180910390a1565b8173ffffffffffffffffffffffffffffffffffffffff168373ffffffffffffffffffffffffffffffffffffffff1614156114af576040517f08c379a00000000000000000000000000000000000000000000000000000000081526004016114a6906123eb565b60405180910390fd5b80600560008573ffffffffffffffffffffffffffffffffffffffff1673ffffffffffffffffffffffffffffffffffffffff16815260200190815260200160002060008473ffffffffffffffffffffffffffffffffffffffff1673ffffffffffffffffffffffffffffffffffffffff16815260200190815260200160002060006101000a81548160ff0219169083151502179055508173ffffffffffffffffffffffffffffffffffffffff168373ffffffffffffffffffffffffffffffffffffffff167f17307eab39ab6107e8899845ad3d59bd9653f200f220920489ca2b5937696c31836040516115a091906122ee565b60405180910390a3505050565b6115b8848484610e26565b6115c4848484846118fa565b611603576040517f08c379a00000000000000000000000000000000000000000000000000000000081526004016115fa9061234b565b60405180910390fd5b50505050565b606060405180602001604052806000815250905090565b60606000821415611668576040518060400160405280600181526020017f300000000000000000000000000000000000000000000000000000000000000081525090506117c8565b600082905060005b6000821461169a57808061168390612793565b915050600a826116939190612615565b9150611670565b60008167ffffffffffffffff8111156116dc577f4e487b7100000000000000000000000000000000000000000000000000000000600052604160045260246000fd5b6040519080825280601f01601f19166020018201604052801561170e5781602001600182028036833780820191505090505b5090505b600085146117c1576001826117279190612646565b9150600a8561173691906127dc565b603061174291906125bf565b60f81b81838151811061177e577f4e487b7100000000000000000000000000000000000000000000000000000000600052603260045260246000fd5b60200101907effffffffffffffffffffffffffffffffffffffffffffffffffffffffffffff1916908160001a905350600a856117ba9190612615565b9450611712565b8093505050505b919050565b60008073ffffffffffffffffffffffffffffffffffffffff166002600084815260200190815260200160002060009054906101000a900473ffffffffffffffffffffffffffffffffffffffff1673ffffffffffffffffffffffffffffffffffffffff1614159050919050565b61184161116e565b61184c838383611a91565b505050565b505050565b61185e6107c0565b61189d576040517f08c379a00000000000000000000000000000000000000000000000000000000081526004016118949061232b565b60405180910390fd5b565b6118a98383611a96565b6118b660008484846118fa565b6118f5576040517f08c379a00000000000000000000000000000000000000000000000000000000081526004016118ec9061234b565b60405180910390fd5b505050565b600061191b8473ffffffffffffffffffffffffffffffffffffffff16611c70565b15611a84578373ffffffffffffffffffffffffffffffffffffffff1663150b7a02611944610cd0565b8786866040518563ffffffff1660e01b815260040161196694939291906122a2565b602060405180830381600087803b15801561198057600080fd5b505af19250505080156119b157506040513d601f19601f820116820180604052508101906119ae9190611f34565b60015b611a34573d80600081146119e1576040519150601f19603f3d011682016040523d82523d6000602084013e6119e6565b606091505b50600081511415611a2c576040517f08c379a0000000000000000000000000000000000000000000000000000000008152600401611a239061234b565b60405180910390fd5b805181602001fd5b63150b7a0260e01b7bffffffffffffffffffffffffffffffffffffffffffffffffffffffff1916817bffffffffffffffffffffffffffffffffffffffffffffffffffffffff191614915050611a89565b600190505b949350505050565b505050565b600073ffffffffffffffffffffffffffffffffffffffff168273ffffffffffffffffffffffffffffffffffffffff161415611b06576040517f08c379a0000000000000000000000000000000000000000000000000000000008152600401611afd9061246b565b60405180910390fd5b611b0f816117cd565b15611b4f576040517f08c379a0000000000000000000000000000000000000000000000000000000008152600401611b46906123ab565b60405180910390fd5b611b5b60008383611839565b6001600360008473ffffffffffffffffffffffffffffffffffffffff1673ffffffffffffffffffffffffffffffffffffffff1681526020019081526020016000206000828254611bab91906125bf565b92505081905550816002600083815260200190815260200160002060006101000a81548173ffffffffffffffffffffffffffffffffffffffff021916908373ffffffffffffffffffffffffffffffffffffffff160217905550808273ffffffffffffffffffffffffffffffffffffffff16600073ffffffffffffffffffffffffffffffffffffffff167fddf252ad1be2c89b69c2b068fc378daa952ba7f163c4a11628f55a4df523b3ef60405160405180910390a4611c6c60008383611851565b5050565b6000808273ffffffffffffffffffffffffffffffffffffffff163b119050919050565b6000611ca6611ca18461254b565b612526565b905082815260208101848484011115611cbe57600080fd5b611cc98482856126ee565b509392505050565b600081359050611ce081612c71565b92915050565b600081359050611cf581612c88565b92915050565b600081359050611d0a81612c9f565b92915050565b600081519050611d1f81612c9f565b92915050565b600082601f830112611d3657600080fd5b8135611d46848260208601611c93565b91505092915050565b600081359050611d5e81612cb6565b92915050565b600060208284031215611d7657600080fd5b6000611d8484828501611cd1565b91505092915050565b60008060408385031215611da057600080fd5b6000611dae85828601611cd1565b9250506020611dbf85828601611cd1565b9150509250929050565b600080600060608486031215611dde57600080fd5b6000611dec86828701611cd1565b9350506020611dfd86828701611cd1565b9250506040611e0e86828701611d4f565b9150509250925092565b60008060008060808587031215611e2e57600080fd5b6000611e3c87828801611cd1565b9450506020611e4d87828801611cd1565b9350506040611e5e87828801611d4f565b925050606085013567ffffffffffffffff811115611e7b57600080fd5b611e8787828801611d25565b91505092959194509250565b60008060408385031215611ea657600080fd5b6000611eb485828601611cd1565b9250506020611ec585828601611ce6565b9150509250929050565b60008060408385031215611ee257600080fd5b6000611ef085828601611cd1565b9250506020611f0185828601611d4f565b9150509250929050565b600060208284031215611f1d57600080fd5b6000611f2b84828501611cfb565b91505092915050565b600060208284031215611f4657600080fd5b6000611f5484828501611d10565b91505092915050565b600060208284031215611f6f57600080fd5b6000611f7d84828501611d4f565b91505092915050565b611f8f8161267a565b82525050565b611f9e8161268c565b82525050565b6000611faf8261257c565b611fb98185612592565b9350611fc98185602086016126fd565b611fd2816128c9565b840191505092915050565b6000611fe882612587565b611ff281856125a3565b93506120028185602086016126fd565b61200b816128c9565b840191505092915050565b600061202182612587565b61202b81856125b4565b935061203b8185602086016126fd565b80840191505092915050565b60006120546014836125a3565b915061205f826128da565b602082019050919050565b60006120776032836125a3565b915061208282612903565b604082019050919050565b600061209a6026836125a3565b91506120a582612952565b604082019050919050565b60006120bd6025836125a3565b91506120c8826129a1565b604082019050919050565b60006120e0601c836125a3565b91506120eb826129f0565b602082019050919050565b60006121036024836125a3565b915061210e82612a19565b604082019050919050565b60006121266019836125a3565b915061213182612a68565b602082019050919050565b60006121496010836125a3565b915061215482612a91565b602082019050919050565b600061216c6029836125a3565b915061217782612aba565b604082019050919050565b600061218f603e836125a3565b915061219a82612b09565b604082019050919050565b60006121b26020836125a3565b91506121bd82612b58565b602082019050919050565b60006121d56020836125a3565b91506121e082612b81565b602082019050919050565b60006121f86018836125a3565b915061220382612baa565b602082019050919050565b600061221b6021836125a3565b915061222682612bd3565b604082019050919050565b600061223e602e836125a3565b915061224982612c22565b604082019050919050565b61225d816126e4565b82525050565b600061226f8285612016565b915061227b8284612016565b91508190509392505050565b600060208201905061229c6000830184611f86565b92915050565b60006080820190506122b76000830187611f86565b6122c46020830186611f86565b6122d16040830185612254565b81810360608301526122e38184611fa4565b905095945050505050565b60006020820190506123036000830184611f95565b92915050565b600060208201905081810360008301526123238184611fdd565b905092915050565b6000602082019050818103600083015261234481612047565b9050919050565b600060208201905081810360008301526123648161206a565b9050919050565b600060208201905081810360008301526123848161208d565b9050919050565b600060208201905081810360008301526123a4816120b0565b9050919050565b600060208201905081810360008301526123c4816120d3565b9050919050565b600060208201905081810360008301526123e4816120f6565b9050919050565b6000602082019050818103600083015261240481612119565b9050919050565b600060208201905081810360008301526124248161213c565b9050919050565b600060208201905081810360008301526124448161215f565b9050919050565b6000602082019050818103600083015261246481612182565b9050919050565b60006020820190508181036000830152612484816121a5565b9050919050565b600060208201905081810360008301526124a4816121c8565b9050919050565b600060208201905081810360008301526124c4816121eb565b9050919050565b600060208201905081810360008301526124e48161220e565b9050919050565b6000602082019050818103600083015261250481612231565b9050919050565b60006020820190506125206000830184612254565b92915050565b6000612530612541565b905061253c8282612762565b919050565b6000604051905090565b600067ffffffffffffffff8211156125665761256561289a565b5b61256f826128c9565b9050602081019050919050565b600081519050919050565b600081519050919050565b600082825260208201905092915050565b600082825260208201905092915050565b600081905092915050565b60006125ca826126e4565b91506125d5836126e4565b9250827fffffffffffffffffffffffffffffffffffffffffffffffffffffffffffffffff0382111561260a5761260961280d565b5b828201905092915050565b6000612620826126e4565b915061262b836126e4565b92508261263b5761263a61283c565b5b828204905092915050565b6000612651826126e4565b915061265c836126e4565b92508282101561266f5761266e61280d565b5b828203905092915050565b6000612685826126c4565b9050919050565b60008115159050919050565b60007fffffffff0000000000000000000000000000000000000000000000000000000082169050919050565b600073ffffffffffffffffffffffffffffffffffffffff82169050919050565b6000819050919050565b82818337600083830152505050565b60005b8381101561271b578082015181840152602081019050612700565b8381111561272a576000848401525b50505050565b6000600282049050600182168061274857607f821691505b6020821081141561275c5761275b61286b565b5b50919050565b61276b826128c9565b810181811067ffffffffffffffff8211171561278a5761278961289a565b5b80604052505050565b600061279e826126e4565b91507fffffffffffffffffffffffffffffffffffffffffffffffffffffffffffffffff8214156127d1576127d061280d565b5b600182019050919050565b60006127e7826126e4565b91506127f2836126e4565b9250826128025761280161283c565b5b828206905092915050565b7f4e487b7100000000000000000000000000000000000000000000000000000000600052601160045260246000fd5b7f4e487b7100000000000000000000000000000000000000000000000000000000600052601260045260246000fd5b7f4e487b7100000000000000000000000000000000000000000000000000000000600052602260045260246000fd5b7f4e487b7100000000000000000000000000000000000000000000000000000000600052604160045260246000fd5b6000601f19601f8301169050919050565b7f5061757361626c653a206e6f7420706175736564000000000000000000000000600082015250565b7f4552433732313a207472616e7366657220746f206e6f6e20455243373231526560008201527f63656976657220696d706c656d656e7465720000000000000000000000000000602082015250565b7f4f776e61626c653a206e6577206f776e657220697320746865207a65726f206160008201527f6464726573730000000000000000000000000000000000000000000000000000602082015250565b7f4552433732313a207472616e736665722066726f6d20696e636f72726563742060008201527f6f776e6572000000000000000000000000000000000000000000000000000000602082015250565b7f4552433732313a20746f6b656e20616c7265616479206d696e74656400000000600082015250565b7f4552433732313a207472616e7366657220746f20746865207a65726f2061646460008201527f7265737300000000000000000000000000000000000000000000000000000000602082015250565b7f4552433732313a20617070726f766520746f2063616c6c657200000000000000600082015250565b7f5061757361626c653a2070617573656400000000000000000000000000000000600082015250565b7f4552433732313a2061646472657373207a65726f206973206e6f74206120766160008201527f6c6964206f776e65720000000000000000000000000000000000000000000000602082015250565b7f4552433732313a20617070726f76652063616c6c6572206973206e6f7420746f60008201527f6b656e206f776e6572206e6f7220617070726f76656420666f7220616c6c0000602082015250565b7f4552433732313a206d696e7420746f20746865207a65726f2061646472657373600082015250565b7f4f776e61626c653a2063616c6c6572206973206e6f7420746865206f776e6572600082015250565b7f4552433732313a20696e76616c696420746f6b656e2049440000000000000000600082015250565b7f4552433732313a20617070726f76616c20746f2063757272656e74206f776e6560008201527f7200000000000000000000000000000000000000000000000000000000000000602082015250565b7f4552433732313a2063616c6c6572206973206e6f7420746f6b656e206f776e6560008201527f72206e6f7220617070726f766564000000000000000000000000000000000000602082015250565b612c7a8161267a565b8114612c8557600080fd5b50565b612c918161268c565b8114612c9c57600080fd5b50565b612ca881612698565b8114612cb357600080fd5b50565b612cbf816126e4565b8114612cca57600080fd5b5056fea264697066735822122079fb4f7751a20c9fcdcfb8ffcdea128b2bcc29832341bb6086632e029ef1b07364736f6c63430008040033",
  "linkReferences": {},
  "deployedLinkReferences": {}
}