{
  "_format": "hh-sol-artifact-1",
  "contractName": "SamToken",
  "sourceName": "contracts/SamToken.sol",
  "abi": [
    {
      "inputs": [],
      "stateMutability": "nonpayable",
      "type": "constructor"
    },
    {
      "anonymous": false,
      "inputs": [
        {
          "indexed": true,
          "internalType": "address",
          "name": "owner",
          "type": "address"
        },
        {
          "indexed": true,
          "internalType": "address",
          "name": "approved",
          "type": "address"
        },
        {
          "indexed": true,
          "internalType": "uint256",
          "name": "tokenId",
          "type": "uint256"
        }
      ],
      "name": "Approval",
      "type": "event"
    },
    {
      "anonymous": false,
      "inputs": [
        {
          "indexed": true,
          "internalType": "address",
          "name": "owner",
          "type": "address"
        },
        {
          "indexed": true,
          "internalType": "address",
          "name": "operator",
          "type": "address"
        },
        {
          "indexed": false,
          "internalType": "bool",
          "name": "approved",
          "type": "bool"
        }
      ],
      "name": "ApprovalForAll",
      "type": "event"
    },
    {
      "anonymous": false,
      "inputs": [
        {
          "indexed": false,
          "internalType": "address",
          "name": "account",
          "type": "address"
        }
      ],
      "name": "Paused",
      "type": "event"
    },
    {
      "anonymous": false,
      "inputs": [
        {
          "indexed": true,
          "internalType": "address",
          "name": "from",
          "type": "address"
        },
        {
          "indexed": true,
          "internalType": "address",
          "name": "to",
          "type": "address"
        },
        {
          "indexed": true,
          "internalType": "uint256",
          "name": "tokenId",
          "type": "uint256"
        }
      ],
      "name": "Transfer",
      "type": "event"
    },
    {
      "anonymous": false,
      "inputs": [
        {
          "indexed": false,
          "internalType": "address",
          "name": "account",
          "type": "address"
        }
      ],
      "name": "Unpaused",
      "type": "event"
    },
    {
      "inputs": [
        {
          "internalType": "address",
          "name": "to",
          "type": "address"
        },
        {
          "internalType": "uint256",
          "name": "tokenId",
          "type": "uint256"
        }
      ],
      "name": "approve",
      "outputs": [],
      "stateMutability": "nonpayable",
      "type": "function"
    },
    {
      "inputs": [
        {
          "internalType": "address",
          "name": "owner",
          "type": "address"
        }
      ],
      "name": "balanceOf",
      "outputs": [
        {
          "internalType": "uint256",
          "name": "",
          "type": "uint256"
        }
      ],
      "stateMutability": "view",
      "type": "function"
    },
    {
      "inputs": [
        {
          "internalType": "uint256",
          "name": "tokenId",
          "type": "uint256"
        }
      ],
      "name": "burn",
      "outputs": [],
      "stateMutability": "nonpayable",
      "type": "function"
    },
    {
      "inputs": [
        {
          "internalType": "uint256",
          "name": "tokenId",
          "type": "uint256"
        }
      ],
      "name": "getApproved",
      "outputs": [
        {
          "internalType": "address",
          "name": "",
          "type": "address"
        }
      ],
      "stateMutability": "view",
      "type": "function"
    },
    {
      "inputs": [
        {
          "internalType": "address",
          "name": "owner",
          "type": "address"
        },
        {
          "internalType": "address",
          "name": "operator",
          "type": "address"
        }
      ],
      "name": "isApprovedForAll",
      "outputs": [
        {
          "internalType": "bool",
          "name": "",
          "type": "bool"
        }
      ],
      "stateMutability": "view",
      "type": "function"
    },
    {
      "inputs": [],
      "name": "name",
      "outputs": [
        {
          "internalType": "string",
          "name": "",
          "type": "string"
        }
      ],
      "stateMutability": "view",
      "type": "function"
    },
    {
      "inputs": [
        {
          "internalType": "uint256",
          "name": "tokenId",
          "type": "uint256"
        }
      ],
      "name": "ownerOf",
      "outputs": [
        {
          "internalType": "address",
          "name": "",
          "type": "address"
        }
      ],
      "stateMutability": "view",
      "type": "function"
    },
    {
      "inputs": [],
      "name": "pause",
      "outputs": [],
      "stateMutability": "nonpayable",
      "type": "function"
    },
    {
      "inputs": [],
      "name": "paused",
      "outputs": [
        {
          "internalType": "bool",
          "name": "",
          "type": "bool"
        }
      ],
      "stateMutability": "view",
      "type": "function"
    },
    {
      "inputs": [
        {
          "internalType": "address",
          "name": "to",
          "type": "address"
        }
      ],
      "name": "safeMint",
      "outputs": [],
      "stateMutability": "nonpayable",
      "type": "function"
    },
    {
      "inputs": [
        {
          "internalType": "address",
          "name": "from",
          "type": "address"
        },
        {
          "internalType": "address",
          "name": "to",
          "type": "address"
        },
        {
          "internalType": "uint256",
          "name": "tokenId",
          "type": "uint256"
        }
      ],
      "name": "safeTransferFrom",
      "outputs": [],
      "stateMutability": "nonpayable",
      "type": "function"
    },
    {
      "inputs": [
        {
          "internalType": "address",
          "name": "from",
          "type": "address"
        },
        {
          "internalType": "address",
          "name": "to",
          "type": "address"
        },
        {
          "internalType": "uint256",
          "name": "tokenId",
          "type": "uint256"
        },
        {
          "internalType": "bytes",
          "name": "data",
          "type": "bytes"
        }
      ],
      "name": "safeTransferFrom",
      "outputs": [],
      "stateMutability": "nonpayable",
      "type": "function"
    },
    {
      "inputs": [
        {
          "internalType": "address",
          "name": "operator",
          "type": "address"
        },
        {
          "internalType": "bool",
          "name": "approved",
          "type": "bool"
        }
      ],
      "name": "setApprovalForAll",
      "outputs": [],
      "stateMutability": "nonpayable",
      "type": "function"
    },
    {
      "inputs": [
        {
          "internalType": "bytes4",
          "name": "interfaceId",
          "type": "bytes4"
        }
      ],
      "name": "supportsInterface",
      "outputs": [
        {
          "internalType": "bool",
          "name": "",
          "type": "bool"
        }
      ],
      "stateMutability": "view",
      "type": "function"
    },
    {
      "inputs": [],
      "name": "symbol",
      "outputs": [
        {
          "internalType": "string",
          "name": "",
          "type": "string"
        }
      ],
      "stateMutability": "view",
      "type": "function"
    },
    {
      "inputs": [
        {
          "internalType": "uint256",
          "name": "tokenId",
          "type": "uint256"
        }
      ],
      "name": "tokenURI",
      "outputs": [
        {
          "internalType": "string",
          "name": "",
          "type": "string"
        }
      ],
      "stateMutability": "view",
      "type": "function"
    },
    {
      "inputs": [
        {
          "internalType": "address",
          "name": "from",
          "type": "address"
        },
        {
          "internalType": "address",
          "name": "to",
          "type": "address"
        },
        {
          "internalType": "uint256",
          "name": "tokenId",
          "type": "uint256"
        }
      ],
      "name": "transferFrom",
      "outputs": [],
      "stateMutability": "nonpayable",
      "type": "function"
    },
    {
      "inputs": [],
      "name": "unpause",
      "outputs": [],
      "stateMutability": "nonpayable",
      "type": "function"
    }
  ],
  "bytecode": "0x60806040523480156200001157600080fd5b506040518060400160405280600881526020017f53616d546f6b656e0000000000000000000000000000000000000000000000008152506040518060400160405280600381526020017f53544b0000000000000000000000000000000000000000000000000000000000815250816000908051906020019062000096929190620000d3565b508060019080519060200190620000af929190620000d3565b5050506000600660006101000a81548160ff021916908315150217905550620001e8565b828054620000e19062000183565b90600052602060002090601f01602090048101928262000105576000855562000151565b82601f106200012057805160ff191683800117855562000151565b8280016001018555821562000151579182015b828111156200015057825182559160200191906001019062000133565b5b50905062000160919062000164565b5090565b5b808211156200017f57600081600090555060010162000165565b5090565b600060028204905060018216806200019c57607f821691505b60208210811415620001b357620001b2620001b9565b5b50919050565b7f4e487b7100000000000000000000000000000000000000000000000000000000600052602260045260246000fd5b61298280620001f86000396000f3fe608060405234801561001057600080fd5b50600436106101165760003560e01c80635c975abb116100a257806395d89b411161007157806395d89b41146102b7578063a22cb465146102d5578063b88d4fde146102f1578063c87b56dd1461030d578063e985e9c51461033d57610116565b80635c975abb1461022f5780636352211e1461024d57806370a082311461027d5780638456cb59146102ad57610116565b806323b872dd116100e957806323b872dd146101b55780633f4ba83a146101d157806340d097c3146101db57806342842e0e146101f757806342966c681461021357610116565b806301ffc9a71461011b57806306fdde031461014b578063081812fc14610169578063095ea7b314610199575b600080fd5b61013560048036038101906101309190611c88565b61036d565b6040516101429190612025565b60405180910390f35b61015361044f565b6040516101609190612040565b60405180910390f35b610183600480360381019061017e9190611cda565b6104e1565b6040516101909190611fbe565b60405180910390f35b6101b360048036038101906101ae9190611c4c565b610527565b005b6101cf60048036038101906101ca9190611b46565b61063f565b005b6101d961069f565b005b6101f560048036038101906101f09190611ae1565b6106a9565b005b610211600480360381019061020c9190611b46565b6106cf565b005b61022d60048036038101906102289190611cda565b6106ef565b005b61023761074b565b6040516102449190612025565b60405180910390f35b61026760048036038101906102629190611cda565b610762565b6040516102749190611fbe565b60405180910390f35b61029760048036038101906102929190611ae1565b610814565b6040516102a49190612202565b60405180910390f35b6102b56108cc565b005b6102bf6108d6565b6040516102cc9190612040565b60405180910390f35b6102ef60048036038101906102ea9190611c10565b610968565b005b61030b60048036038101906103069190611b95565b61097e565b005b61032760048036038101906103229190611cda565b6109e0565b6040516103349190612040565b60405180910390f35b61035760048036038101906103529190611b0a565b610a48565b6040516103649190612025565b60405180910390f35b60007f80ac58cd000000000000000000000000000000000000000000000000000000007bffffffffffffffffffffffffffffffffffffffffffffffffffffffff1916827bffffffffffffffffffffffffffffffffffffffffffffffffffffffff1916148061043857507f5b5e139f000000000000000000000000000000000000000000000000000000007bffffffffffffffffffffffffffffffffffffffffffffffffffffffff1916827bffffffffffffffffffffffffffffffffffffffffffffffffffffffff1916145b80610448575061044782610adc565b5b9050919050565b60606000805461045e90612427565b80601f016020809104026020016040519081016040528092919081815260200182805461048a90612427565b80156104d75780601f106104ac576101008083540402835291602001916104d7565b820191906000526020600020905b8154815290600101906020018083116104ba57829003601f168201915b5050505050905090565b60006104ec82610b46565b6004600083815260200190815260200160002060009054906101000a900473ffffffffffffffffffffffffffffffffffffffff169050919050565b600061053282610762565b90508073ffffffffffffffffffffffffffffffffffffffff168373ffffffffffffffffffffffffffffffffffffffff1614156105a3576040517f08c379a000000000000000000000000000000000000000000000000000000000815260040161059a906121c2565b60405180910390fd5b8073ffffffffffffffffffffffffffffffffffffffff166105c2610b91565b73ffffffffffffffffffffffffffffffffffffffff1614806105f157506105f0816105eb610b91565b610a48565b5b610630576040517f08c379a000000000000000000000000000000000000000000000000000000000815260040161062790612162565b60405180910390fd5b61063a8383610b99565b505050565b61065061064a610b91565b82610c52565b61068f576040517f08c379a0000000000000000000000000000000000000000000000000000000008152600401610686906121e2565b60405180910390fd5b61069a838383610ce7565b505050565b6106a7610f4e565b565b60006106b56007610fb1565b90506106c16007610fbf565b6106cb8282610fd5565b5050565b6106ea8383836040518060200160405280600081525061097e565b505050565b6107006106fa610b91565b82610c52565b61073f576040517f08c379a0000000000000000000000000000000000000000000000000000000008152600401610736906121e2565b60405180910390fd5b61074881610ff3565b50565b6000600660009054906101000a900460ff16905090565b6000806002600084815260200190815260200160002060009054906101000a900473ffffffffffffffffffffffffffffffffffffffff169050600073ffffffffffffffffffffffffffffffffffffffff168173ffffffffffffffffffffffffffffffffffffffff16141561080b576040517f08c379a0000000000000000000000000000000000000000000000000000000008152600401610802906121a2565b60405180910390fd5b80915050919050565b60008073ffffffffffffffffffffffffffffffffffffffff168273ffffffffffffffffffffffffffffffffffffffff161415610885576040517f08c379a000000000000000000000000000000000000000000000000000000000815260040161087c90612142565b60405180910390fd5b600360008373ffffffffffffffffffffffffffffffffffffffff1673ffffffffffffffffffffffffffffffffffffffff168152602001908152602001600020549050919050565b6108d4611110565b565b6060600180546108e590612427565b80601f016020809104026020016040519081016040528092919081815260200182805461091190612427565b801561095e5780601f106109335761010080835404028352916020019161095e565b820191906000526020600020905b81548152906001019060200180831161094157829003601f168201915b5050505050905090565b61097a610973610b91565b8383611173565b5050565b61098f610989610b91565b83610c52565b6109ce576040517f08c379a00000000000000000000000000000000000000000000000000000000081526004016109c5906121e2565b60405180910390fd5b6109da848484846112e0565b50505050565b60606109eb82610b46565b60006109f561133c565b90506000815111610a155760405180602001604052806000815250610a40565b80610a1f84611353565b604051602001610a30929190611f9a565b6040516020818303038152906040525b915050919050565b6000600560008473ffffffffffffffffffffffffffffffffffffffff1673ffffffffffffffffffffffffffffffffffffffff16815260200190815260200160002060008373ffffffffffffffffffffffffffffffffffffffff1673ffffffffffffffffffffffffffffffffffffffff16815260200190815260200160002060009054906101000a900460ff16905092915050565b60007f01ffc9a7000000000000000000000000000000000000000000000000000000007bffffffffffffffffffffffffffffffffffffffffffffffffffffffff1916827bffffffffffffffffffffffffffffffffffffffffffffffffffffffff1916149050919050565b610b4f81611500565b610b8e576040517f08c379a0000000000000000000000000000000000000000000000000000000008152600401610b85906121a2565b60405180910390fd5b50565b600033905090565b816004600083815260200190815260200160002060006101000a81548173ffffffffffffffffffffffffffffffffffffffff021916908373ffffffffffffffffffffffffffffffffffffffff160217905550808273ffffffffffffffffffffffffffffffffffffffff16610c0c83610762565b73ffffffffffffffffffffffffffffffffffffffff167f8c5be1e5ebec7d5bd14f71427d1e84f3dd0314c0f7b2291e5b200ac8c7c3b92560405160405180910390a45050565b600080610c5e83610762565b90508073ffffffffffffffffffffffffffffffffffffffff168473ffffffffffffffffffffffffffffffffffffffff161480610ca05750610c9f8185610a48565b5b80610cde57508373ffffffffffffffffffffffffffffffffffffffff16610cc6846104e1565b73ffffffffffffffffffffffffffffffffffffffff16145b91505092915050565b8273ffffffffffffffffffffffffffffffffffffffff16610d0782610762565b73ffffffffffffffffffffffffffffffffffffffff1614610d5d576040517f08c379a0000000000000000000000000000000000000000000000000000000008152600401610d54906120a2565b60405180910390fd5b600073ffffffffffffffffffffffffffffffffffffffff168273ffffffffffffffffffffffffffffffffffffffff161415610dcd576040517f08c379a0000000000000000000000000000000000000000000000000000000008152600401610dc4906120e2565b60405180910390fd5b610dd883838361156c565b610de3600082610b99565b6001600360008573ffffffffffffffffffffffffffffffffffffffff1673ffffffffffffffffffffffffffffffffffffffff1681526020019081526020016000206000828254610e33919061233d565b925050819055506001600360008473ffffffffffffffffffffffffffffffffffffffff1673ffffffffffffffffffffffffffffffffffffffff1681526020019081526020016000206000828254610e8a91906122b6565b92505081905550816002600083815260200190815260200160002060006101000a81548173ffffffffffffffffffffffffffffffffffffffff021916908373ffffffffffffffffffffffffffffffffffffffff160217905550808273ffffffffffffffffffffffffffffffffffffffff168473ffffffffffffffffffffffffffffffffffffffff167fddf252ad1be2c89b69c2b068fc378daa952ba7f163c4a11628f55a4df523b3ef60405160405180910390a4610f49838383611584565b505050565b610f56611589565b6000600660006101000a81548160ff0219169083151502179055507f5db9ee0a495bf2e6ff9c91a7834c1ba4fdd244a5e8aa4e537bd38aeae4b073aa610f9a610b91565b604051610fa79190611fbe565b60405180910390a1565b600081600001549050919050565b6001816000016000828254019250508190555050565b610fef8282604051806020016040528060008152506115d2565b5050565b6000610ffe82610762565b905061100c8160008461156c565b611017600083610b99565b6001600360008373ffffffffffffffffffffffffffffffffffffffff1673ffffffffffffffffffffffffffffffffffffffff1681526020019081526020016000206000828254611067919061233d565b925050819055506002600083815260200190815260200160002060006101000a81549073ffffffffffffffffffffffffffffffffffffffff021916905581600073ffffffffffffffffffffffffffffffffffffffff168273ffffffffffffffffffffffffffffffffffffffff167fddf252ad1be2c89b69c2b068fc378daa952ba7f163c4a11628f55a4df523b3ef60405160405180910390a461110c81600084611584565b5050565b61111861162d565b6001600660006101000a81548160ff0219169083151502179055507f62e78cea01bee320cd4e420270b5ea74000d11b0c9f74754ebdbfc544b05a25861115c610b91565b6040516111699190611fbe565b60405180910390a1565b8173ffffffffffffffffffffffffffffffffffffffff168373ffffffffffffffffffffffffffffffffffffffff1614156111e2576040517f08c379a00000000000000000000000000000000000000000000000000000000081526004016111d990612102565b60405180910390fd5b80600560008573ffffffffffffffffffffffffffffffffffffffff1673ffffffffffffffffffffffffffffffffffffffff16815260200190815260200160002060008473ffffffffffffffffffffffffffffffffffffffff1673ffffffffffffffffffffffffffffffffffffffff16815260200190815260200160002060006101000a81548160ff0219169083151502179055508173ffffffffffffffffffffffffffffffffffffffff168373ffffffffffffffffffffffffffffffffffffffff167f17307eab39ab6107e8899845ad3d59bd9653f200f220920489ca2b5937696c31836040516112d39190612025565b60405180910390a3505050565b6112eb848484610ce7565b6112f784848484611677565b611336576040517f08c379a000000000000000000000000000000000000000000000000000000000815260040161132d90612082565b60405180910390fd5b50505050565b606060405180602001604052806000815250905090565b6060600082141561139b576040518060400160405280600181526020017f300000000000000000000000000000000000000000000000000000000000000081525090506114fb565b600082905060005b600082146113cd5780806113b69061248a565b915050600a826113c6919061230c565b91506113a3565b60008167ffffffffffffffff81111561140f577f4e487b7100000000000000000000000000000000000000000000000000000000600052604160045260246000fd5b6040519080825280601f01601f1916602001820160405280156114415781602001600182028036833780820191505090505b5090505b600085146114f45760018261145a919061233d565b9150600a8561146991906124d3565b603061147591906122b6565b60f81b8183815181106114b1577f4e487b7100000000000000000000000000000000000000000000000000000000600052603260045260246000fd5b60200101907effffffffffffffffffffffffffffffffffffffffffffffffffffffffffffff1916908160001a905350600a856114ed919061230c565b9450611445565b8093505050505b919050565b60008073ffffffffffffffffffffffffffffffffffffffff166002600084815260200190815260200160002060009054906101000a900473ffffffffffffffffffffffffffffffffffffffff1673ffffffffffffffffffffffffffffffffffffffff1614159050919050565b61157461162d565b61157f83838361180e565b505050565b505050565b61159161074b565b6115d0576040517f08c379a00000000000000000000000000000000000000000000000000000000081526004016115c790612062565b60405180910390fd5b565b6115dc8383611813565b6115e96000848484611677565b611628576040517f08c379a000000000000000000000000000000000000000000000000000000000815260040161161f90612082565b60405180910390fd5b505050565b61163561074b565b15611675576040517f08c379a000000000000000000000000000000000000000000000000000000000815260040161166c90612122565b60405180910390fd5b565b60006116988473ffffffffffffffffffffffffffffffffffffffff166119ed565b15611801578373ffffffffffffffffffffffffffffffffffffffff1663150b7a026116c1610b91565b8786866040518563ffffffff1660e01b81526004016116e39493929190611fd9565b602060405180830381600087803b1580156116fd57600080fd5b505af192505050801561172e57506040513d601f19601f8201168201806040525081019061172b9190611cb1565b60015b6117b1573d806000811461175e576040519150601f19603f3d011682016040523d82523d6000602084013e611763565b606091505b506000815114156117a9576040517f08c379a00000000000000000000000000000000000000000000000000000000081526004016117a090612082565b60405180910390fd5b805181602001fd5b63150b7a0260e01b7bffffffffffffffffffffffffffffffffffffffffffffffffffffffff1916817bffffffffffffffffffffffffffffffffffffffffffffffffffffffff191614915050611806565b600190505b949350505050565b505050565b600073ffffffffffffffffffffffffffffffffffffffff168273ffffffffffffffffffffffffffffffffffffffff161415611883576040517f08c379a000000000000000000000000000000000000000000000000000000000815260040161187a90612182565b60405180910390fd5b61188c81611500565b156118cc576040517f08c379a00000000000000000000000000000000000000000000000000000000081526004016118c3906120c2565b60405180910390fd5b6118d86000838361156c565b6001600360008473ffffffffffffffffffffffffffffffffffffffff1673ffffffffffffffffffffffffffffffffffffffff168152602001908152602001600020600082825461192891906122b6565b92505081905550816002600083815260200190815260200160002060006101000a81548173ffffffffffffffffffffffffffffffffffffffff021916908373ffffffffffffffffffffffffffffffffffffffff160217905550808273ffffffffffffffffffffffffffffffffffffffff16600073ffffffffffffffffffffffffffffffffffffffff167fddf252ad1be2c89b69c2b068fc378daa952ba7f163c4a11628f55a4df523b3ef60405160405180910390a46119e960008383611584565b5050565b6000808273ffffffffffffffffffffffffffffffffffffffff163b119050919050565b6000611a23611a1e84612242565b61221d565b905082815260208101848484011115611a3b57600080fd5b611a468482856123e5565b509392505050565b600081359050611a5d816128f0565b92915050565b600081359050611a7281612907565b92915050565b600081359050611a878161291e565b92915050565b600081519050611a9c8161291e565b92915050565b600082601f830112611ab357600080fd5b8135611ac3848260208601611a10565b91505092915050565b600081359050611adb81612935565b92915050565b600060208284031215611af357600080fd5b6000611b0184828501611a4e565b91505092915050565b60008060408385031215611b1d57600080fd5b6000611b2b85828601611a4e565b9250506020611b3c85828601611a4e565b9150509250929050565b600080600060608486031215611b5b57600080fd5b6000611b6986828701611a4e565b9350506020611b7a86828701611a4e565b9250506040611b8b86828701611acc565b9150509250925092565b60008060008060808587031215611bab57600080fd5b6000611bb987828801611a4e565b9450506020611bca87828801611a4e565b9350506040611bdb87828801611acc565b925050606085013567ffffffffffffffff811115611bf857600080fd5b611c0487828801611aa2565b91505092959194509250565b60008060408385031215611c2357600080fd5b6000611c3185828601611a4e565b9250506020611c4285828601611a63565b9150509250929050565b60008060408385031215611c5f57600080fd5b6000611c6d85828601611a4e565b9250506020611c7e85828601611acc565b9150509250929050565b600060208284031215611c9a57600080fd5b6000611ca884828501611a78565b91505092915050565b600060208284031215611cc357600080fd5b6000611cd184828501611a8d565b91505092915050565b600060208284031215611cec57600080fd5b6000611cfa84828501611acc565b91505092915050565b611d0c81612371565b82525050565b611d1b81612383565b82525050565b6000611d2c82612273565b611d368185612289565b9350611d468185602086016123f4565b611d4f816125c0565b840191505092915050565b6000611d658261227e565b611d6f818561229a565b9350611d7f8185602086016123f4565b611d88816125c0565b840191505092915050565b6000611d9e8261227e565b611da881856122ab565b9350611db88185602086016123f4565b80840191505092915050565b6000611dd160148361229a565b9150611ddc826125d1565b602082019050919050565b6000611df460328361229a565b9150611dff826125fa565b604082019050919050565b6000611e1760258361229a565b9150611e2282612649565b604082019050919050565b6000611e3a601c8361229a565b9150611e4582612698565b602082019050919050565b6000611e5d60248361229a565b9150611e68826126c1565b604082019050919050565b6000611e8060198361229a565b9150611e8b82612710565b602082019050919050565b6000611ea360108361229a565b9150611eae82612739565b602082019050919050565b6000611ec660298361229a565b9150611ed182612762565b604082019050919050565b6000611ee9603e8361229a565b9150611ef4826127b1565b604082019050919050565b6000611f0c60208361229a565b9150611f1782612800565b602082019050919050565b6000611f2f60188361229a565b9150611f3a82612829565b602082019050919050565b6000611f5260218361229a565b9150611f5d82612852565b604082019050919050565b6000611f75602e8361229a565b9150611f80826128a1565b604082019050919050565b611f94816123db565b82525050565b6000611fa68285611d93565b9150611fb28284611d93565b91508190509392505050565b6000602082019050611fd36000830184611d03565b92915050565b6000608082019050611fee6000830187611d03565b611ffb6020830186611d03565b6120086040830185611f8b565b818103606083015261201a8184611d21565b905095945050505050565b600060208201905061203a6000830184611d12565b92915050565b6000602082019050818103600083015261205a8184611d5a565b905092915050565b6000602082019050818103600083015261207b81611dc4565b9050919050565b6000602082019050818103600083015261209b81611de7565b9050919050565b600060208201905081810360008301526120bb81611e0a565b9050919050565b600060208201905081810360008301526120db81611e2d565b9050919050565b600060208201905081810360008301526120fb81611e50565b9050919050565b6000602082019050818103600083015261211b81611e73565b9050919050565b6000602082019050818103600083015261213b81611e96565b9050919050565b6000602082019050818103600083015261215b81611eb9565b9050919050565b6000602082019050818103600083015261217b81611edc565b9050919050565b6000602082019050818103600083015261219b81611eff565b9050919050565b600060208201905081810360008301526121bb81611f22565b9050919050565b600060208201905081810360008301526121db81611f45565b9050919050565b600060208201905081810360008301526121fb81611f68565b9050919050565b60006020820190506122176000830184611f8b565b92915050565b6000612227612238565b90506122338282612459565b919050565b6000604051905090565b600067ffffffffffffffff82111561225d5761225c612591565b5b612266826125c0565b9050602081019050919050565b600081519050919050565b600081519050919050565b600082825260208201905092915050565b600082825260208201905092915050565b600081905092915050565b60006122c1826123db565b91506122cc836123db565b9250827fffffffffffffffffffffffffffffffffffffffffffffffffffffffffffffffff0382111561230157612300612504565b5b828201905092915050565b6000612317826123db565b9150612322836123db565b92508261233257612331612533565b5b828204905092915050565b6000612348826123db565b9150612353836123db565b92508282101561236657612365612504565b5b828203905092915050565b600061237c826123bb565b9050919050565b60008115159050919050565b60007fffffffff0000000000000000000000000000000000000000000000000000000082169050919050565b600073ffffffffffffffffffffffffffffffffffffffff82169050919050565b6000819050919050565b82818337600083830152505050565b60005b838110156124125780820151818401526020810190506123f7565b83811115612421576000848401525b50505050565b6000600282049050600182168061243f57607f821691505b6020821081141561245357612452612562565b5b50919050565b612462826125c0565b810181811067ffffffffffffffff8211171561248157612480612591565b5b80604052505050565b6000612495826123db565b91507fffffffffffffffffffffffffffffffffffffffffffffffffffffffffffffffff8214156124c8576124c7612504565b5b600182019050919050565b60006124de826123db565b91506124e9836123db565b9250826124f9576124f8612533565b5b828206905092915050565b7f4e487b7100000000000000000000000000000000000000000000000000000000600052601160045260246000fd5b7f4e487b7100000000000000000000000000000000000000000000000000000000600052601260045260246000fd5b7f4e487b7100000000000000000000000000000000000000000000000000000000600052602260045260246000fd5b7f4e487b7100000000000000000000000000000000000000000000000000000000600052604160045260246000fd5b6000601f19601f8301169050919050565b7f5061757361626c653a206e6f7420706175736564000000000000000000000000600082015250565b7f4552433732313a207472616e7366657220746f206e6f6e20455243373231526560008201527f63656976657220696d706c656d656e7465720000000000000000000000000000602082015250565b7f4552433732313a207472616e736665722066726f6d20696e636f72726563742060008201527f6f776e6572000000000000000000000000000000000000000000000000000000602082015250565b7f4552433732313a20746f6b656e20616c7265616479206d696e74656400000000600082015250565b7f4552433732313a207472616e7366657220746f20746865207a65726f2061646460008201527f7265737300000000000000000000000000000000000000000000000000000000602082015250565b7f4552433732313a20617070726f766520746f2063616c6c657200000000000000600082015250565b7f5061757361626c653a2070617573656400000000000000000000000000000000600082015250565b7f4552433732313a2061646472657373207a65726f206973206e6f74206120766160008201527f6c6964206f776e65720000000000000000000000000000000000000000000000602082015250565b7f4552433732313a20617070726f76652063616c6c6572206973206e6f7420746f60008201527f6b656e206f776e6572206e6f7220617070726f76656420666f7220616c6c0000602082015250565b7f4552433732313a206d696e7420746f20746865207a65726f2061646472657373600082015250565b7f4552433732313a20696e76616c696420746f6b656e2049440000000000000000600082015250565b7f4552433732313a20617070726f76616c20746f2063757272656e74206f776e6560008201527f7200000000000000000000000000000000000000000000000000000000000000602082015250565b7f4552433732313a2063616c6c6572206973206e6f7420746f6b656e206f776e6560008201527f72206e6f7220617070726f766564000000000000000000000000000000000000602082015250565b6128f981612371565b811461290457600080fd5b50565b61291081612383565b811461291b57600080fd5b50565b6129278161238f565b811461293257600080fd5b50565b61293e816123db565b811461294957600080fd5b5056fea264697066735822122097c153d7bcd81cea587d7bc6af6f78f7ca3fbdcb1f4ca3d59871b8ed1545aa3464736f6c63430008040033",
  "linkReferences": {},
  "deployedLinkReferences": {}
}